:03000000020030CB
:03000B0002008E62
:10003000758901D2A9D2AFE4F54090028CE54093D6
:10004000602FF530540FF531E530C4540FF5329080
:1000500002EFE53223F53493F58CF5440534E534AD
:1000600093F58AF545D28C120081D531FA0540808E
:10007000C9C28C120081120081120081120081809D
:10008000B67B057C327DFADDFEDCFADBF6228544A8
:100090008C85458AB29032445464748494A40022BE
:1000A000424252526262819186625404224242521A
:1000B0005262642418042242425252626281918642
:1000C000625404526224526222122804224256428E
:1000D000242242564264628294928262524454685C
:1000E00022425642242242544468526224526222DE
:1000F000122404046282B6A26462524442526462D0
:10010000524492B2A292825268046282B6A264629F
:100110005244425268526224526222122C0400223B
:100120004422665252464832243256624226286899
:10013000966294827268485264726258582464527B
:1001400062224C645234625222425268686896625B
:10015000948272668254726252445C645234623297
:1001600022122828006464748484746454444454BF
:10017000646652586464748484746454444454645B
:1001800056424854546444546272644454627264E3
:100190005444541464646474848474647252444493
:1001A0005464564248000C0241112321221243415B
:1001B0000241112321221243610241119391919135
:1001C0008243414141524341014122640443410180
:1001D00051526341021121434101515263410222B4
:1001E0004221410222422141024271624142226483
:1001F00004434101515263410211214341015152D3
:1002000063410222422141022242214102427162A3
:10021000414252440201016272627282026272625F
:1002200072820282726272614141414141226142A5
:100230004141412241424141412264046272627261
:100240008202627262728202827262726141414112
:100250004141226142414141524142414141624456
:10026000048464546262524252626402629464542E
:100270004242425262525404846454626252425274
:10028000626402629464446444080400622222317D
:1002900043526242626262816502616152525261FE
:1002A0007502126262625171340422324251634219
:1002B00062426262628165026161525252627404FA
:1002C00012626252A404966222022282766175044E
:1002D00086521202128266726272029662220222B2
:1002E000827661750272627261727162726C000074
:1002F00000FB04FBCCFC0CFC44FCACFD09FD34FD14
:0F03000082FDC8FE06FE22FE56FE85FE9AFEC155
:00000001FF
